{
  "address": "0xD0a690f3df9d9f697b78e774Cd9171418738C724",
  "abi": [
    {
      "inputs": [
        {
          "internalType": "address",
          "name": "feeCollectorAddress",
          "type": "address"
        },
        {
          "internalType": "uint256",
          "name": "fee",
          "type": "uint256"
        }
      ],
      "stateMutability": "nonpayable",
      "type": "constructor"
    },
    {
      "anonymous": false,
      "inputs": [
        {
          "indexed": true,
          "internalType": "uint256",
          "name": "orderId",
          "type": "uint256"
        },
        {
          "indexed": false,
          "internalType": "address",
          "name": "receiver",
          "type": "address"
        },
        {
          "indexed": false,
          "internalType": "uint256",
          "name": "amount",
          "type": "uint256"
        }
      ],
      "name": "FundsReleased",
      "type": "event"
    },
    {
      "anonymous": false,
      "inputs": [
        {
          "indexed": true,
          "internalType": "uint256",
          "name": "orderId",
          "type": "uint256"
        },
        {
          "indexed": false,
          "internalType": "address",
          "name": "buyer",
          "type": "address"
        }
      ],
      "name": "OrderAccepted",
      "type": "event"
    },
    {
      "anonymous": false,
      "inputs": [
        {
          "indexed": true,
          "internalType": "uint256",
          "name": "orderId",
          "type": "uint256"
        },
        {
          "indexed": false,
          "internalType": "address",
          "name": "seller",
          "type": "address"
        },
        {
          "indexed": false,
          "internalType": "uint256",
          "name": "amount",
          "type": "uint256"
        }
      ],
      "name": "OrderCancelled",
      "type": "event"
    },
    {
      "anonymous": false,
      "inputs": [
        {
          "indexed": true,
          "internalType": "bytes32",
          "name": "role",
          "type": "bytes32"
        },
        {
          "indexed": true,
          "internalType": "bytes32",
          "name": "previousAdminRole",
          "type": "bytes32"
        },
        {
          "indexed": true,
          "internalType": "bytes32",
          "name": "newAdminRole",
          "type": "bytes32"
        }
      ],
      "name": "RoleAdminChanged",
      "type": "event"
    },
    {
      "anonymous": false,
      "inputs": [
        {
          "indexed": true,
          "internalType": "bytes32",
          "name": "role",
          "type": "bytes32"
        },
        {
          "indexed": true,
          "internalType": "address",
          "name": "account",
          "type": "address"
        },
        {
          "indexed": true,
          "internalType": "address",
          "name": "sender",
          "type": "address"
        }
      ],
      "name": "RoleGranted",
      "type": "event"
    },
    {
      "anonymous": false,
      "inputs": [
        {
          "indexed": true,
          "internalType": "bytes32",
          "name": "role",
          "type": "bytes32"
        },
        {
          "indexed": true,
          "internalType": "address",
          "name": "account",
          "type": "address"
        },
        {
          "indexed": true,
          "internalType": "address",
          "name": "sender",
          "type": "address"
        }
      ],
      "name": "RoleRevoked",
      "type": "event"
    },
    {
      "anonymous": false,
      "inputs": [
        {
          "indexed": true,
          "internalType": "uint256",
          "name": "orderId",
          "type": "uint256"
        },
        {
          "indexed": false,
          "internalType": "address",
          "name": "seller",
          "type": "address"
        },
        {
          "indexed": false,
          "internalType": "address",
          "name": "token",
          "type": "address"
        },
        {
          "indexed": false,
          "internalType": "string",
          "name": "currency",
          "type": "string"
        },
        {
          "indexed": false,
          "internalType": "uint256",
          "name": "amountInToken",
          "type": "uint256"
        },
        {
          "indexed": false,
          "internalType": "uint256",
          "name": "amountInCurrency",
          "type": "uint256"
        }
      ],
      "name": "SellOrderPlaced",
      "type": "event"
    },
    {
      "inputs": [],
      "name": "BUYER_ROLE",
      "outputs": [
        {
          "internalType": "bytes32",
          "name": "",
          "type": "bytes32"
        }
      ],
      "stateMutability": "view",
      "type": "function"
    },
    {
      "inputs": [],
      "name": "DEFAULT_ADMIN_ROLE",
      "outputs": [
        {
          "internalType": "bytes32",
          "name": "",
          "type": "bytes32"
        }
      ],
      "stateMutability": "view",
      "type": "function"
    },
    {
      "inputs": [],
      "name": "MANAGER_ROLE",
      "outputs": [
        {
          "internalType": "bytes32",
          "name": "",
          "type": "bytes32"
        }
      ],
      "stateMutability": "view",
      "type": "function"
    },
    {
      "inputs": [],
      "name": "SIGNER_ROLE",
      "outputs": [
        {
          "internalType": "bytes32",
          "name": "",
          "type": "bytes32"
        }
      ],
      "stateMutability": "view",
      "type": "function"
    },
    {
      "inputs": [
        {
          "internalType": "uint256",
          "name": "",
          "type": "uint256"
        }
      ],
      "name": "_orders",
      "outputs": [
        {
          "internalType": "enum Zkexchange._TransactionState",
          "name": "txStatus",
          "type": "uint8"
        },
        {
          "internalType": "uint256",
          "name": "nonce",
          "type": "uint256"
        },
        {
          "internalType": "address",
          "name": "seller",
          "type": "address"
        },
        {
          "internalType": "address",
          "name": "buyer",
          "type": "address"
        },
        {
          "internalType": "address",
          "name": "token",
          "type": "address"
        },
        {
          "internalType": "string",
          "name": "currency",
          "type": "string"
        },
        {
          "internalType": "uint256",
          "name": "amountInToken",
          "type": "uint256"
        },
        {
          "internalType": "uint256",
          "name": "amountInCurrency",
          "type": "uint256"
        }
      ],
      "stateMutability": "view",
      "type": "function"
    },
    {
      "inputs": [],
      "name": "_ordersCount",
      "outputs": [
        {
          "internalType": "uint256",
          "name": "",
          "type": "uint256"
        }
      ],
      "stateMutability": "view",
      "type": "function"
    },
    {
      "inputs": [
        {
          "internalType": "bytes",
          "name": "",
          "type": "bytes"
        }
      ],
      "name": "_ordersSignatures",
      "outputs": [
        {
          "internalType": "bool",
          "name": "",
          "type": "bool"
        }
      ],
      "stateMutability": "view",
      "type": "function"
    },
    {
      "inputs": [
        {
          "internalType": "uint256",
          "name": "orderId",
          "type": "uint256"
        }
      ],
      "name": "acceptOrder",
      "outputs": [],
      "stateMutability": "nonpayable",
      "type": "function"
    },
    {
      "inputs": [
        {
          "internalType": "string",
          "name": "currency",
          "type": "string"
        },
        {
          "internalType": "uint256",
          "name": "fee",
          "type": "uint256"
        },
        {
          "internalType": "uint256",
          "name": "minOrder",
          "type": "uint256"
        },
        {
          "internalType": "uint256",
          "name": "maxOrder",
          "type": "uint256"
        }
      ],
      "name": "addCurrency",
      "outputs": [],
      "stateMutability": "nonpayable",
      "type": "function"
    },
    {
      "inputs": [
        {
          "internalType": "address",
          "name": "token",
          "type": "address"
        },
        {
          "internalType": "uint256",
          "name": "fee",
          "type": "uint256"
        },
        {
          "internalType": "uint256",
          "name": "minOrder",
          "type": "uint256"
        },
        {
          "internalType": "uint256",
          "name": "maxOrder",
          "type": "uint256"
        }
      ],
      "name": "addToken",
      "outputs": [],
      "stateMutability": "nonpayable",
      "type": "function"
    },
    {
      "inputs": [
        {
          "internalType": "uint256",
          "name": "orderId",
          "type": "uint256"
        }
      ],
      "name": "adminRefundFunds",
      "outputs": [],
      "stateMutability": "nonpayable",
      "type": "function"
    },
    {
      "inputs": [
        {
          "internalType": "uint256",
          "name": "orderId",
          "type": "uint256"
        }
      ],
      "name": "adminReleaseFunds",
      "outputs": [],
      "stateMutability": "nonpayable",
      "type": "function"
    },
    {
      "inputs": [
        {
          "internalType": "uint256",
          "name": "orderId",
          "type": "uint256"
        }
      ],
      "name": "cancelOrder",
      "outputs": [],
      "stateMutability": "nonpayable",
      "type": "function"
    },
    {
      "inputs": [
        {
          "internalType": "uint256",
          "name": "orderId",
          "type": "uint256"
        }
      ],
      "name": "cancelOrderAdmin",
      "outputs": [],
      "stateMutability": "nonpayable",
      "type": "function"
    },
    {
      "inputs": [
        {
          "internalType": "uint256",
          "name": "fee",
          "type": "uint256"
        }
      ],
      "name": "changeFee",
      "outputs": [],
      "stateMutability": "nonpayable",
      "type": "function"
    },
    {
      "inputs": [
        {
          "internalType": "uint256",
          "name": "orderId",
          "type": "uint256"
        }
      ],
      "name": "completeOrder",
      "outputs": [
        {
          "internalType": "uint256",
          "name": "",
          "type": "uint256"
        }
      ],
      "stateMutability": "nonpayable",
      "type": "function"
    },
    {
      "inputs": [
        {
          "internalType": "string",
          "name": "currency",
          "type": "string"
        },
        {
          "internalType": "uint256",
          "name": "fee",
          "type": "uint256"
        },
        {
          "internalType": "uint256",
          "name": "minOrder",
          "type": "uint256"
        },
        {
          "internalType": "uint256",
          "name": "maxOrder",
          "type": "uint256"
        }
      ],
      "name": "editCurrency",
      "outputs": [],
      "stateMutability": "nonpayable",
      "type": "function"
    },
    {
      "inputs": [
        {
          "internalType": "address",
          "name": "token",
          "type": "address"
        },
        {
          "internalType": "uint256",
          "name": "fee",
          "type": "uint256"
        },
        {
          "internalType": "uint256",
          "name": "minOrder",
          "type": "uint256"
        },
        {
          "internalType": "uint256",
          "name": "maxOrder",
          "type": "uint256"
        }
      ],
      "name": "editToken",
      "outputs": [],
      "stateMutability": "nonpayable",
      "type": "function"
    },
    {
      "inputs": [
        {
          "internalType": "bytes32",
          "name": "role",
          "type": "bytes32"
        }
      ],
      "name": "getRoleAdmin",
      "outputs": [
        {
          "internalType": "bytes32",
          "name": "",
          "type": "bytes32"
        }
      ],
      "stateMutability": "view",
      "type": "function"
    },
    {
      "inputs": [
        {
          "internalType": "bytes32",
          "name": "role",
          "type": "bytes32"
        },
        {
          "internalType": "address",
          "name": "account",
          "type": "address"
        }
      ],
      "name": "grantRole",
      "outputs": [],
      "stateMutability": "nonpayable",
      "type": "function"
    },
    {
      "inputs": [
        {
          "internalType": "bytes32",
          "name": "role",
          "type": "bytes32"
        },
        {
          "internalType": "address",
          "name": "account",
          "type": "address"
        }
      ],
      "name": "hasRole",
      "outputs": [
        {
          "internalType": "bool",
          "name": "",
          "type": "bool"
        }
      ],
      "stateMutability": "view",
      "type": "function"
    },
    {
      "inputs": [
        {
          "internalType": "uint256",
          "name": "amountInToken",
          "type": "uint256"
        },
        {
          "internalType": "uint256",
          "name": "amountInCurrency",
          "type": "uint256"
        },
        {
          "internalType": "string",
          "name": "currency",
          "type": "string"
        },
        {
          "internalType": "address",
          "name": "token",
          "type": "address"
        }
      ],
      "name": "placeSellOrder",
      "outputs": [],
      "stateMutability": "payable",
      "type": "function"
    },
    {
      "inputs": [
        {
          "internalType": "uint256",
          "name": "orderId",
          "type": "uint256"
        }
      ],
      "name": "releaseFunds",
      "outputs": [],
      "stateMutability": "nonpayable",
      "type": "function"
    },
    {
      "inputs": [
        {
          "internalType": "string",
          "name": "currency",
          "type": "string"
        }
      ],
      "name": "removeCurrency",
      "outputs": [],
      "stateMutability": "nonpayable",
      "type": "function"
    },
    {
      "inputs": [
        {
          "internalType": "address",
          "name": "token",
          "type": "address"
        }
      ],
      "name": "removeToken",
      "outputs": [],
      "stateMutability": "nonpayable",
      "type": "function"
    },
    {
      "inputs": [
        {
          "internalType": "bytes32",
          "name": "role",
          "type": "bytes32"
        },
        {
          "internalType": "address",
          "name": "account",
          "type": "address"
        }
      ],
      "name": "renounceRole",
      "outputs": [],
      "stateMutability": "nonpayable",
      "type": "function"
    },
    {
      "inputs": [
        {
          "internalType": "bytes32",
          "name": "role",
          "type": "bytes32"
        },
        {
          "internalType": "address",
          "name": "account",
          "type": "address"
        }
      ],
      "name": "revokeRole",
      "outputs": [],
      "stateMutability": "nonpayable",
      "type": "function"
    },
    {
      "inputs": [
        {
          "internalType": "bytes4",
          "name": "interfaceId",
          "type": "bytes4"
        }
      ],
      "name": "supportsInterface",
      "outputs": [
        {
          "internalType": "bool",
          "name": "",
          "type": "bool"
        }
      ],
      "stateMutability": "view",
      "type": "function"
    },
    {
      "inputs": [
        {
          "internalType": "uint256",
          "name": "orderId",
          "type": "uint256"
        }
      ],
      "name": "transactionState",
      "outputs": [
        {
          "internalType": "uint256",
          "name": "",
          "type": "uint256"
        }
      ],
      "stateMutability": "view",
      "type": "function"
    }
  ],
  "transactionHash": "0x371d4ba41af3e5ffe88ee5a83d6e817ebee3f860d0528f04cf6ef8c299c5ded0",
  "args": [
    "0xbE70b0cE9ecB7c0c4f0be93d8c329212a90BE112",
    15
  ],
  "numDeployments": 1,
  "solcInputHash": "6a8d8b099a0add6b4874e25d7d690d2f",
  "bytecode": "0x60806040526127106002553480156200001757600080fd5b50604051620028e9380380620028e98339810160408190526200003a916200024d565b620000677ff8cd32ed93fc2f9fc78152a14807c9609af3d99c5fe4dc6b106a801aaddfe90e6000620000cf565b620000947f241ecf16d79d0f8dbfb92cbc07fe17840425976cf0667f022fe9877caa831b086000620000cf565b620000a16000336200011a565b600180546001600160a01b0319166001600160a01b038416179055620000c781620001bb565b505062000289565b600082815260208190526040808220600101805490849055905190918391839186917fbd79b86ffe0ab8e8776151514217cd7cacd52c909f66475c3af44e129f0b00ff9190a4505050565b6000828152602081815260408083206001600160a01b038516845290915290205460ff16620001b7576000828152602081815260408083206001600160a01b03851684529091529020805460ff19166001179055620001763390565b6001600160a01b0316816001600160a01b0316837f2f8788117e7eff1d82e926ec794901d17c78024a50270940304540a733656f0d60405160405180910390a45b5050565b3360009081527fad3228b676f7d3cd4284a5443f17f1962b36e491b30a40b2405849e597ba5fb5602052604090205460ff16620002485760405162461bcd60e51b815260206004820152602160248201527f4f6e6c792061646d696e2063616e2063616c6c20746869732066756e6374696f6044820152603760f91b606482015260840160405180910390fd5b600355565b600080604083850312156200026157600080fd5b82516001600160a01b03811681146200027957600080fd5b6020939093015192949293505050565b61265080620002996000396000f3fe6080604052600436106101c25760003560e01c80637625c12d116100f7578063a1ebf35d11610095578063d547741f11610064578063d547741f14610536578063d9b5bfd914610556578063ec87621c14610591578063ef18e9ed146105b357600080fd5b8063a1ebf35d146104ad578063a217fddf146104e1578063b27dbeaf146104f6578063b6adaaff1461051657600080fd5b806381d0be5e116100d157806381d0be5e146104375780638b08ef10146104575780639096c29a1461046d57806391d148541461048d57600080fd5b80637625c12d146103c357806377cea87a146103e35780637a01a1da1461040357600080fd5b8063428e7855116101645780634e5919ef1161013e5780634e5919ef1461032f578063514fcac7146103635780635fa7b584146103835780636a1db1bf146103a357600080fd5b8063428e7855146102dc5780634c5c06f4146102fc5780634d68282f1461030f57600080fd5b80632512af89116101a05780632512af891461025c5780632f2ff15d1461027c5780632fbb80ec1461029c57806336568abe146102bc57600080fd5b806301ffc9a7146101c7578063228103e9146101fc578063248a9ca31461021e575b600080fd5b3480156101d357600080fd5b506101e76101e2366004611e58565b6105d3565b60405190151581526020015b60405180910390f35b34801561020857600080fd5b5061021c610217366004611e99565b61060a565b005b34801561022a57600080fd5b5061024e610239366004611ed2565b60009081526020819052604090206001015490565b6040519081526020016101f3565b34801561026857600080fd5b5061021c610277366004611f97565b6106fd565b34801561028857600080fd5b5061021c610297366004611feb565b610803565b3480156102a857600080fd5b5061024e6102b7366004611ed2565b61082d565b3480156102c857600080fd5b5061021c6102d7366004611feb565b61085d565b3480156102e857600080fd5b5061021c6102f7366004611ed2565b6108db565b61021c61030a366004612017565b610ae5565b34801561031b57600080fd5b5061021c61032a366004611ed2565b610d86565b34801561033b57600080fd5b5061034f61034a366004611ed2565b610f7e565b6040516101f39897969594939291906120de565b34801561036f57600080fd5b5061021c61037e366004611ed2565b61105d565b34801561038f57600080fd5b5061021c61039e366004612155565b611270565b3480156103af57600080fd5b5061021c6103be366004611ed2565b611329565b3480156103cf57600080fd5b5061021c6103de366004611ed2565b611355565b3480156103ef57600080fd5b5061021c6103fe366004611ed2565b6115e8565b34801561040f57600080fd5b5061024e7ff8cd32ed93fc2f9fc78152a14807c9609af3d99c5fe4dc6b106a801aaddfe90e81565b34801561044357600080fd5b5061021c610452366004611f97565b6116bd565b34801561046357600080fd5b5061024e60085481565b34801561047957600080fd5b5061021c610488366004612170565b611754565b34801561049957600080fd5b506101e76104a8366004611feb565b611824565b3480156104b957600080fd5b5061024e7fe2f4eaae4a9751e85a3e4a7b9587827a877f29914755229b07a7b2da98285f7081565b3480156104ed57600080fd5b5061024e600081565b34801561050257600080fd5b5061021c610511366004611e99565b61184d565b34801561052257600080fd5b5061024e610531366004611ed2565b6118e1565b34801561054257600080fd5b5061021c610551366004611feb565b6119e5565b34801561056257600080fd5b506101e76105713660046121ad565b805160208183018101805160078252928201919093012091525460ff1681565b34801561059d57600080fd5b5061024e6000805160206125fb83398151915281565b3480156105bf57600080fd5b5061021c6105ce366004611ed2565b611a0a565b60006001600160e01b03198216637965db0b60e01b148061060457506301ffc9a760e01b6001600160e01b03198316145b92915050565b610615600033611824565b61063a5760405162461bcd60e51b8152600401610631906121f6565b60405180910390fd5b6001600160a01b03841660009081526004602052604090205460ff166106995760405162461bcd60e51b8152602060048201526014602482015273151bdad95b88191bd95cc81b9bdd08195e1a5cdd60621b6044820152606401610631565b6040805160808101825260018082526020808301968752828401958652606083019485526001600160a01b039790971660009081526004909752919095209451855460ff191690151517855592519284019290925551600283015551600390910155565b610708600033611824565b6107245760405162461bcd60e51b8152600401610631906121f6565b6005846040516107349190612237565b9081526040519081900360200190205460ff1661078d5760405162461bcd60e51b815260206004820152601760248201527610dd5c9c995b98de48191bd95cc81b9bdd08195e1a5cdd604a1b6044820152606401610631565b6040518060800160405280600115158152602001848152602001838152602001828152506005856040516107c19190612237565b90815260408051602092819003830190208351815460ff1916901515178155918301516001830155820151600282015560609091015160039091015550505050565b60008281526020819052604090206001015461081e81611af0565b6108288383611afd565b505050565b600081815260066020819052604082208054909160ff9091169081111561085657610856612078565b9392505050565b6001600160a01b03811633146108cd5760405162461bcd60e51b815260206004820152602f60248201527f416363657373436f6e74726f6c3a2063616e206f6e6c792072656e6f756e636560448201526e103937b632b9903337b91039b2b63360891b6064820152608401610631565b6108d78282611b81565b5050565b6108f36000805160206125fb83398151915233611824565b61090f5760405162461bcd60e51b815260040161063190612253565b60008181526006602052604090206002815460ff16600681111561093557610935612078565b146109525760405162461bcd60e51b815260040161063190612296565b6004818101546002830154600684015460405163a9059cbb60e01b81526001600160a01b03928316948101949094526024840152169063a9059cbb906044016020604051808303816000875af11580156109b0573d6000803e3d6000fd5b505050506040513d601f19601f820116820180604052508101906109d491906122c5565b610a205760405162461bcd60e51b815260206004820152601c60248201527f546f6b656e20726566756e6420746f206275796572206661696c6564000000006044820152606401610631565b8054600560ff1991821681178355600084815260066020526040812080549093168355600183018190556002830180546001600160a01b031990811690915560038401805482169055600484018054909116905590610a8190830182611e0a565b5060006006828101829055600790920155600282015490820154604080516001600160a01b039093168352602083019190915283917fc4058ebc534b64ecb27b2d4eaa1904f98997ec18ebe6ada4117593dde89478cc910160405180910390a25050565b6001600160a01b03811660009081526004602052604090205460ff16610b3d5760405162461bcd60e51b815260206004820152600d60248201526c24b73b30b634b2103a37b5b2b760991b6044820152606401610631565b6001600160a01b03811660009081526004602052604090206002015484118015610b8157506001600160a01b03811660009081526004602052604090206003015484105b610bc45760405162461bcd60e51b8152602060048201526014602482015273125b9d985b1a59081d1bdad95b88185b5bdd5b9d60621b6044820152606401610631565b600582604051610bd49190612237565b9081526040519081900360200190205460ff16610c265760405162461bcd60e51b815260206004820152601060248201526f496e76616c69642063757272656e637960801b6044820152606401610631565b600582604051610c369190612237565b90815260200160405180910390206002015483118015610c765750600582604051610c619190612237565b90815260200160405180910390206003015483105b610cc25760405162461bcd60e51b815260206004820152601760248201527f496e76616c69642063757272656e637920616d6f756e740000000000000000006044820152606401610631565b6008546000908152600660205260409020600281018054336001600160a01b0319918216179091556004820180549091166001600160a01b03841617905560058101610d0e848261236f565b5034600682015560078101849055805460ff191660011781556008546040517f8eedc34a10eb92a7a9c0ec99cd322fddfb8d9255f460483e09f993b2f2d761da90610d62903390869088908b908b9061242f565b60405180910390a260088054906000610d7a83612485565b91905055505050505050565b60008181526006602052604090206002015481906001600160a01b03163314610dc15760405162461bcd60e51b81526004016106319061249e565b60008281526006602052604090206002815460ff166006811115610de757610de7612078565b14610e2c5760405162461bcd60e51b815260206004820152601560248201527413dc99195c881a5cc81b9bdd081858d8d95c1d1959605a1b6044820152606401610631565b6000610e3b8260070154611be6565b600483015460015460078501549293506001600160a01b039182169263a9059cbb9290911690610e6c9085906124e6565b6040516001600160e01b031960e085901b1681526001600160a01b03909216600483015260248201526044016020604051808303816000875af1158015610eb7573d6000803e3d6000fd5b505050506040513d601f19601f82011682018060405250810190610edb91906122c5565b610f1d5760405162461bcd60e51b8152602060048201526013602482015272119959481d1c985b9cd9995c8819985a5b1959606a1b6044820152606401610631565b815460ff1916600417825560028201546006830154604080516001600160a01b039093168352602083019190915285917f6e3c6096795c8298a218b2cfb8bde42726ff7c9a3d27b4d3ba41ab7f74feb5fb910160405180910390a250505050565b60066020526000908152604090208054600182015460028301546003840154600485015460058601805460ff9096169694956001600160a01b0394851695938516949092169291610fce906122e7565b80601f0160208091040260200160405190810160405280929190818152602001828054610ffa906122e7565b80156110475780601f1061101c57610100808354040283529160200191611047565b820191906000526020600020905b81548152906001019060200180831161102a57829003601f168201915b5050505050908060060154908060070154905088565b60008181526006602052604090206002015481906001600160a01b031633146110985760405162461bcd60e51b81526004016106319061249e565b60008281526006602052604090206002815460ff1660068111156110be576110be612078565b146110db5760405162461bcd60e51b815260040161063190612296565b6004818101546002830154600684015460405163a9059cbb60e01b81526001600160a01b03928316948101949094526024840152169063a9059cbb906044016020604051808303816000875af1158015611139573d6000803e3d6000fd5b505050506040513d601f19601f8201168201806040525081019061115d91906122c5565b6111a95760405162461bcd60e51b815260206004820152601c60248201527f546f6b656e20726566756e6420746f206275796572206661696c6564000000006044820152606401610631565b8054600560ff1991821681178355600085815260066020526040812080549093168355600183018190556002830180546001600160a01b03199081169091556003840180548216905560048401805490911690559061120a90830182611e0a565b5060006006828101829055600790920155600282015490820154604080516001600160a01b039093168352602083019190915284917fc4058ebc534b64ecb27b2d4eaa1904f98997ec18ebe6ada4117593dde89478cc91015b60405180910390a2505050565b61127b600033611824565b6112975760405162461bcd60e51b8152600401610631906121f6565b6001600160a01b03811660009081526004602052604090205460ff166112f65760405162461bcd60e51b8152602060048201526014602482015273151bdad95b88191bd95cc81b9bdd08195e1a5cdd60621b6044820152606401610631565b6001600160a01b03166000908152600460205260408120805460ff19168155600181018290556002810182905560030155565b611334600033611824565b6113505760405162461bcd60e51b8152600401610631906121f6565b600355565b61136d6000805160206125fb83398151915233611824565b6113895760405162461bcd60e51b815260040161063190612253565b60008181526006602052604090206002815460ff1660068111156113af576113af612078565b146113f55760405162461bcd60e51b815260206004820152601660248201527513dc99195c881b5d5cdd081899481858d8d95c1d195960521b6044820152606401610631565b6002546004828101546001600160a01b031660009081526020919091526040812060010154600684015491929161142c91906124f9565b6114369190612510565b9050600081836006015461144a91906124e6565b60038401546040519192506000916001600160a01b039091169083908381818185875af1925050503d806000811461149e576040519150601f19603f3d011682016040523d82523d6000602084013e6114a3565b606091505b50509050806114eb5760405162461bcd60e51b81526020600482015260146024820152732330b4b632b2103a379039b2b7321022ba3432b960611b6044820152606401610631565b6001546040516000916001600160a01b03169085908381818185875af1925050503d8060008114611538576040519150601f19603f3d011682016040523d82523d6000602084013e61153d565b606091505b50509050806115855760405162461bcd60e51b81526020600482015260146024820152732330b4b632b2103a379039b2b7321022ba3432b960611b6044820152606401610631565b60038501546006860154604080516001600160a01b039093168352602083019190915287917f6e3c6096795c8298a218b2cfb8bde42726ff7c9a3d27b4d3ba41ab7f74feb5fb910160405180910390a25050825460ff1916600317909255505050565b6116006000805160206125fb83398151915233611824565b61161c5760405162461bcd60e51b815260040161063190612253565b60008181526006602052604090206002815460ff16600681111561164257611642612078565b1461165f5760405162461bcd60e51b815260040161063190612296565b60028101546006820154604080516001600160a01b039093168352602083019190915283917f6e3c6096795c8298a218b2cfb8bde42726ff7c9a3d27b4d3ba41ab7f74feb5fb910160405180910390a2805460ff1916600617905550565b6116c8600033611824565b6116e45760405162461bcd60e51b8152600401610631906121f6565b6005846040516116f49190612237565b9081526040519081900360200190205460ff161561078d5760405162461bcd60e51b815260206004820152601760248201527f43757272656e637920616c7265616479206578697374730000000000000000006044820152606401610631565b61175f600033611824565b61177b5760405162461bcd60e51b8152600401610631906121f6565b60058160405161178b9190612237565b9081526040519081900360200190205460ff166117e45760405162461bcd60e51b815260206004820152601760248201527610dd5c9c995b98de48191bd95cc81b9bdd08195e1a5cdd604a1b6044820152606401610631565b6005816040516117f49190612237565b908152604051908190036020019020805460ff191681556000600182018190556002820181905560039091015550565b6000918252602082815260408084206001600160a01b0393909316845291905290205460ff1690565b6118656000805160206125fb83398151915233611824565b6118815760405162461bcd60e51b815260040161063190612253565b6001600160a01b03841660009081526004602052604090205460ff16156106995760405162461bcd60e51b8152602060048201526014602482015273546f6b656e20616c72656164792065786973747360601b6044820152606401610631565b600061190d7ff8cd32ed93fc2f9fc78152a14807c9609af3d99c5fe4dc6b106a801aaddfe90e33611824565b6119635760405162461bcd60e51b815260206004820152602160248201527f4f6e6c792062757965722063616e2063616c6c20746869732066756e6374696f6044820152603760f91b6064820152608401610631565b60008281526006602052604090206002815460ff16600681111561198957611989612078565b146119ce5760405162461bcd60e51b815260206004820152601560248201527413dc99195c881a5cc81b9bdd081858d8d95c1d1959605a1b6044820152606401610631565b805460ff191660039081178255610856565b919050565b600082815260208190526040902060010154611a0081611af0565b6108288383611b81565b7ff8cd32ed93fc2f9fc78152a14807c9609af3d99c5fe4dc6b106a801aaddfe90e611a3481611af0565b60008281526006602052604090206001815460ff166006811115611a5a57611a5a612078565b14611a9b5760405162461bcd60e51b815260206004820152601160248201527037b93232b91034b9903737ba1037b832b760791b6044820152606401610631565b600381018054336001600160a01b03199091168117909155815460ff1916600217825560405190815283907fa3a9d59445e437d97cac53692b666afef6c152b0642edd206bde8472f387e59a90602001611263565b611afa8133611c03565b50565b611b078282611824565b6108d7576000828152602081815260408083206001600160a01b03851684529091529020805460ff19166001179055611b3d3390565b6001600160a01b0316816001600160a01b0316837f2f8788117e7eff1d82e926ec794901d17c78024a50270940304540a733656f0d60405160405180910390a45050565b611b8b8282611824565b156108d7576000828152602081815260408083206001600160a01b0385168085529252808320805460ff1916905551339285917ff6391f5c32d9c69d2a47ea670b442974b53935d1edc7fd64eb21e047a839171b9190a45050565b600060025460035483611bf991906124f9565b6106049190612510565b611c0d8282611824565b6108d757611c1a81611c5c565b611c25836020611c6e565b604051602001611c36929190612532565b60408051601f198184030181529082905262461bcd60e51b8252610631916004016125a7565b60606106046001600160a01b03831660145b60606000611c7d8360026124f9565b611c889060026125ba565b67ffffffffffffffff811115611ca057611ca0611eeb565b6040519080825280601f01601f191660200182016040528015611cca576020820181803683370190505b509050600360fc1b81600081518110611ce557611ce56125cd565b60200101906001600160f81b031916908160001a905350600f60fb1b81600181518110611d1457611d146125cd565b60200101906001600160f81b031916908160001a9053506000611d388460026124f9565b611d439060016125ba565b90505b6001811115611dbb576f181899199a1a9b1b9c1cb0b131b232b360811b85600f1660108110611d7757611d776125cd565b1a60f81b828281518110611d8d57611d8d6125cd565b60200101906001600160f81b031916908160001a90535060049490941c93611db4816125e3565b9050611d46565b5083156108565760405162461bcd60e51b815260206004820181905260248201527f537472696e67733a20686578206c656e67746820696e73756666696369656e746044820152606401610631565b508054611e16906122e7565b6000825580601f10611e26575050565b601f016020900490600052602060002090810190611afa91905b80821115611e545760008155600101611e40565b5090565b600060208284031215611e6a57600080fd5b81356001600160e01b03198116811461085657600080fd5b80356001600160a01b03811681146119e057600080fd5b60008060008060808587031215611eaf57600080fd5b611eb885611e82565b966020860135965060408601359560600135945092505050565b600060208284031215611ee457600080fd5b5035919050565b634e487b7160e01b600052604160045260246000fd5b600067ffffffffffffffff80841115611f1c57611f1c611eeb565b604051601f8501601f19908116603f01168101908282118183101715611f4457611f44611eeb565b81604052809350858152868686011115611f5d57600080fd5b858560208301376000602087830101525050509392505050565b600082601f830112611f8857600080fd5b61085683833560208501611f01565b60008060008060808587031215611fad57600080fd5b843567ffffffffffffffff811115611fc457600080fd5b611fd087828801611f77565b97602087013597506040870135966060013595509350505050565b60008060408385031215611ffe57600080fd5b8235915061200e60208401611e82565b90509250929050565b6000806000806080858703121561202d57600080fd5b8435935060208501359250604085013567ffffffffffffffff81111561205257600080fd5b61205e87828801611f77565b92505061206d60608601611e82565b905092959194509250565b634e487b7160e01b600052602160045260246000fd5b60005b838110156120a9578181015183820152602001612091565b50506000910152565b600081518084526120ca81602086016020860161208e565b601f01601f19169290920160200192915050565b600061010060078b1061210157634e487b7160e01b600052602160045260246000fd5b8a8352602083018a90526001600160a01b03898116604085015288811660608501528716608084015260a0830181905261213d818401876120b2565b60c0840195909552505060e001529695505050505050565b60006020828403121561216757600080fd5b61085682611e82565b60006020828403121561218257600080fd5b813567ffffffffffffffff81111561219957600080fd5b6121a584828501611f77565b949350505050565b6000602082840312156121bf57600080fd5b813567ffffffffffffffff8111156121d657600080fd5b8201601f810184136121e757600080fd5b6121a584823560208401611f01565b60208082526021908201527f4f6e6c792061646d696e2063616e2063616c6c20746869732066756e6374696f6040820152603760f91b606082015260800190565b6000825161224981846020870161208e565b9190910192915050565b60208082526023908201527f4f6e6c79206d616e616765722063616e2063616c6c20746869732066756e637460408201526234b7b760e91b606082015260800190565b6020808252601590820152741bdc99195c881a5cc81b9bdd081858d8d95c1d1959605a1b604082015260600190565b6000602082840312156122d757600080fd5b8151801515811461085657600080fd5b600181811c908216806122fb57607f821691505b60208210810361231b57634e487b7160e01b600052602260045260246000fd5b50919050565b601f82111561082857600081815260208120601f850160051c810160208610156123485750805b601f850160051c820191505b8181101561236757828155600101612354565b505050505050565b815167ffffffffffffffff81111561238957612389611eeb565b61239d8161239784546122e7565b84612321565b602080601f8311600181146123d257600084156123ba5750858301515b600019600386901b1c1916600185901b178555612367565b600085815260208120601f198616915b82811015612401578886015182559484019460019091019084016123e2565b508582101561241f5787850151600019600388901b60f8161c191681555b5050505050600190811b01905550565b6001600160a01b0386811682528516602082015260a06040820181905260009061245b908301866120b2565b606083019490945250608001529392505050565b634e487b7160e01b600052601160045260246000fd5b6000600182016124975761249761246f565b5060010190565b60208082526028908201527f4f6e6c79206f726465722073656c6c65722063616e2063616c6c207468697320604082015267333ab731ba34b7b760c11b606082015260800190565b818103818111156106045761060461246f565b80820281158282048414176106045761060461246f565b60008261252d57634e487b7160e01b600052601260045260246000fd5b500490565b7f416363657373436f6e74726f6c3a206163636f756e742000000000000000000081526000835161256a81601785016020880161208e565b7001034b99036b4b9b9b4b733903937b6329607d1b601791840191820152835161259b81602884016020880161208e565b01602801949350505050565b60208152600061085660208301846120b2565b808201808211156106045761060461246f565b634e487b7160e01b600052603260045260246000fd5b6000816125f2576125f261246f565b50600019019056fe241ecf16d79d0f8dbfb92cbc07fe17840425976cf0667f022fe9877caa831b08a2646970667358221220a12d4b41b2abf2e97ce9be2ed43cf22eb3c0ddd63c0eda786d803bfcb9c2d82364736f6c63430008110033",
  "devdoc": {
    "kind": "dev",
    "methods": {
      "getRoleAdmin(bytes32)": {
        "details": "Returns the admin role that controls `role`. See {grantRole} and {revokeRole}. To change a role's admin, use {_setRoleAdmin}."
      },
      "grantRole(bytes32,address)": {
        "details": "Grants `role` to `account`. If `account` had not been already granted `role`, emits a {RoleGranted} event. Requirements: - the caller must have ``role``'s admin role. May emit a {RoleGranted} event."
      },
      "hasRole(bytes32,address)": {
        "details": "Returns `true` if `account` has been granted `role`."
      },
      "renounceRole(bytes32,address)": {
        "details": "Revokes `role` from the calling account. Roles are often managed via {grantRole} and {revokeRole}: this function's purpose is to provide a mechanism for accounts to lose their privileges if they are compromised (such as when a trusted device is misplaced). If the calling account had been revoked `role`, emits a {RoleRevoked} event. Requirements: - the caller must be `account`. May emit a {RoleRevoked} event."
      },
      "revokeRole(bytes32,address)": {
        "details": "Revokes `role` from `account`. If `account` had been granted `role`, emits a {RoleRevoked} event. Requirements: - the caller must have ``role``'s admin role. May emit a {RoleRevoked} event."
      },
      "supportsInterface(bytes4)": {
        "details": "See {IERC165-supportsInterface}."
      }
    },
    "version": 1
  },
  "userdoc": {
    "kind": "user",
    "methods": {},
    "version": 1
  },
  "storageLayout": {
    "storage": [
      {
        "astId": 24,
        "contract": "contracts/Zkexchange.sol:Zkexchange",
        "label": "_roles",
        "offset": 0,
        "slot": "0",
        "type": "t_mapping(t_bytes32,t_struct(RoleData)19_storage)"
      },
      {
        "astId": 2092,
        "contract": "contracts/Zkexchange.sol:Zkexchange",
        "label": "_feeCollectorAddress",
        "offset": 0,
        "slot": "1",
        "type": "t_address"
      },
      {
        "astId": 2095,
        "contract": "contracts/Zkexchange.sol:Zkexchange",
        "label": "_feeDecimal",
        "offset": 0,
        "slot": "2",
        "type": "t_uint256"
      },
      {
        "astId": 2097,
        "contract": "contracts/Zkexchange.sol:Zkexchange",
        "label": "_fee",
        "offset": 0,
        "slot": "3",
        "type": "t_uint256"
      },
      {
        "astId": 2128,
        "contract": "contracts/Zkexchange.sol:Zkexchange",
        "label": "_allowedTokens",
        "offset": 0,
        "slot": "4",
        "type": "t_mapping(t_address,t_struct(TokenConfig)2114_storage)"
      },
      {
        "astId": 2133,
        "contract": "contracts/Zkexchange.sol:Zkexchange",
        "label": "_allowedCurrencies",
        "offset": 0,
        "slot": "5",
        "type": "t_mapping(t_string_memory_ptr,t_struct(CurrencyConfig)2123_storage)"
      },
      {
        "astId": 2156,
        "contract": "contracts/Zkexchange.sol:Zkexchange",
        "label": "_orders",
        "offset": 0,
        "slot": "6",
        "type": "t_mapping(t_uint256,t_struct(Order)2151_storage)"
      },
      {
        "astId": 2160,
        "contract": "contracts/Zkexchange.sol:Zkexchange",
        "label": "_ordersSignatures",
        "offset": 0,
        "slot": "7",
        "type": "t_mapping(t_bytes_memory_ptr,t_bool)"
      },
      {
        "astId": 2162,
        "contract": "contracts/Zkexchange.sol:Zkexchange",
        "label": "_ordersCount",
        "offset": 0,
        "slot": "8",
        "type": "t_uint256"
      }
    ],
    "types": {
      "t_address": {
        "encoding": "inplace",
        "label": "address",
        "numberOfBytes": "20"
      },
      "t_bool": {
        "encoding": "inplace",
        "label": "bool",
        "numberOfBytes": "1"
      },
      "t_bytes32": {
        "encoding": "inplace",
        "label": "bytes32",
        "numberOfBytes": "32"
      },
      "t_bytes_memory_ptr": {
        "encoding": "bytes",
        "label": "bytes",
        "numberOfBytes": "32"
      },
      "t_enum(_TransactionState)2105": {
        "encoding": "inplace",
        "label": "enum Zkexchange._TransactionState",
        "numberOfBytes": "1"
      },
      "t_mapping(t_address,t_bool)": {
        "encoding": "mapping",
        "key": "t_address",
        "label": "mapping(address => bool)",
        "numberOfBytes": "32",
        "value": "t_bool"
      },
      "t_mapping(t_address,t_struct(TokenConfig)2114_storage)": {
        "encoding": "mapping",
        "key": "t_address",
        "label": "mapping(address => struct Zkexchange.TokenConfig)",
        "numberOfBytes": "32",
        "value": "t_struct(TokenConfig)2114_storage"
      },
      "t_mapping(t_bytes32,t_struct(RoleData)19_storage)": {
        "encoding": "mapping",
        "key": "t_bytes32",
        "label": "mapping(bytes32 => struct AccessControl.RoleData)",
        "numberOfBytes": "32",
        "value": "t_struct(RoleData)19_storage"
      },
      "t_mapping(t_bytes_memory_ptr,t_bool)": {
        "encoding": "mapping",
        "key": "t_bytes_memory_ptr",
        "label": "mapping(bytes => bool)",
        "numberOfBytes": "32",
        "value": "t_bool"
      },
      "t_mapping(t_string_memory_ptr,t_struct(CurrencyConfig)2123_storage)": {
        "encoding": "mapping",
        "key": "t_string_memory_ptr",
        "label": "mapping(string => struct Zkexchange.CurrencyConfig)",
        "numberOfBytes": "32",
        "value": "t_struct(CurrencyConfig)2123_storage"
      },
      "t_mapping(t_uint256,t_struct(Order)2151_storage)": {
        "encoding": "mapping",
        "key": "t_uint256",
        "label": "mapping(uint256 => struct Zkexchange.Order)",
        "numberOfBytes": "32",
        "value": "t_struct(Order)2151_storage"
      },
      "t_string_memory_ptr": {
        "encoding": "bytes",
        "label": "string",
        "numberOfBytes": "32"
      },
      "t_string_storage": {
        "encoding": "bytes",
        "label": "string",
        "numberOfBytes": "32"
      },
      "t_struct(CurrencyConfig)2123_storage": {
        "encoding": "inplace",
        "label": "struct Zkexchange.CurrencyConfig",
        "members": [
          {
            "astId": 2116,
            "contract": "contracts/Zkexchange.sol:Zkexchange",
            "label": "status",
            "offset": 0,
            "slot": "0",
            "type": "t_bool"
          },
          {
            "astId": 2118,
            "contract": "contracts/Zkexchange.sol:Zkexchange",
            "label": "fee",
            "offset": 0,
            "slot": "1",
            "type": "t_uint256"
          },
          {
            "astId": 2120,
            "contract": "contracts/Zkexchange.sol:Zkexchange",
            "label": "minOrder",
            "offset": 0,
            "slot": "2",
            "type": "t_uint256"
          },
          {
            "astId": 2122,
            "contract": "contracts/Zkexchange.sol:Zkexchange",
            "label": "maxOrder",
            "offset": 0,
            "slot": "3",
            "type": "t_uint256"
          }
        ],
        "numberOfBytes": "128"
      },
      "t_struct(Order)2151_storage": {
        "encoding": "inplace",
        "label": "struct Zkexchange.Order",
        "members": [
          {
            "astId": 2136,
            "contract": "contracts/Zkexchange.sol:Zkexchange",
            "label": "txStatus",
            "offset": 0,
            "slot": "0",
            "type": "t_enum(_TransactionState)2105"
          },
          {
            "astId": 2138,
            "contract": "contracts/Zkexchange.sol:Zkexchange",
            "label": "nonce",
            "offset": 0,
            "slot": "1",
            "type": "t_uint256"
          },
          {
            "astId": 2140,
            "contract": "contracts/Zkexchange.sol:Zkexchange",
            "label": "seller",
            "offset": 0,
            "slot": "2",
            "type": "t_address"
          },
          {
            "astId": 2142,
            "contract": "contracts/Zkexchange.sol:Zkexchange",
            "label": "buyer",
            "offset": 0,
            "slot": "3",
            "type": "t_address"
          },
          {
            "astId": 2144,
            "contract": "contracts/Zkexchange.sol:Zkexchange",
            "label": "token",
            "offset": 0,
            "slot": "4",
            "type": "t_address"
          },
          {
            "astId": 2146,
            "contract": "contracts/Zkexchange.sol:Zkexchange",
            "label": "currency",
            "offset": 0,
            "slot": "5",
            "type": "t_string_storage"
          },
          {
            "astId": 2148,
            "contract": "contracts/Zkexchange.sol:Zkexchange",
            "label": "amountInToken",
            "offset": 0,
            "slot": "6",
            "type": "t_uint256"
          },
          {
            "astId": 2150,
            "contract": "contracts/Zkexchange.sol:Zkexchange",
            "label": "amountInCurrency",
            "offset": 0,
            "slot": "7",
            "type": "t_uint256"
          }
        ],
        "numberOfBytes": "256"
      },
      "t_struct(RoleData)19_storage": {
        "encoding": "inplace",
        "label": "struct AccessControl.RoleData",
        "members": [
          {
            "astId": 16,
            "contract": "contracts/Zkexchange.sol:Zkexchange",
            "label": "members",
            "offset": 0,
            "slot": "0",
            "type": "t_mapping(t_address,t_bool)"
          },
          {
            "astId": 18,
            "contract": "contracts/Zkexchange.sol:Zkexchange",
            "label": "adminRole",
            "offset": 0,
            "slot": "1",
            "type": "t_bytes32"
          }
        ],
        "numberOfBytes": "64"
      },
      "t_struct(TokenConfig)2114_storage": {
        "encoding": "inplace",
        "label": "struct Zkexchange.TokenConfig",
        "members": [
          {
            "astId": 2107,
            "contract": "contracts/Zkexchange.sol:Zkexchange",
            "label": "status",
            "offset": 0,
            "slot": "0",
            "type": "t_bool"
          },
          {
            "astId": 2109,
            "contract": "contracts/Zkexchange.sol:Zkexchange",
            "label": "fee",
            "offset": 0,
            "slot": "1",
            "type": "t_uint256"
          },
          {
            "astId": 2111,
            "contract": "contracts/Zkexchange.sol:Zkexchange",
            "label": "minOrder",
            "offset": 0,
            "slot": "2",
            "type": "t_uint256"
          },
          {
            "astId": 2113,
            "contract": "contracts/Zkexchange.sol:Zkexchange",
            "label": "maxOrder",
            "offset": 0,
            "slot": "3",
            "type": "t_uint256"
          }
        ],
        "numberOfBytes": "128"
      },
      "t_uint256": {
        "encoding": "inplace",
        "label": "uint256",
        "numberOfBytes": "32"
      }
    }
  }
}